{"abi":[{"type":"function","name":"getNumber","inputs":[],"outputs":[{"name":"","type":"uint256","internalType":"uint256"}],"stateMutability":"view"},{"type":"function","name":"increment","inputs":[],"outputs":[],"stateMutability":"nonpayable"},{"type":"function","name":"number","inputs":[],"outputs":[{"name":"","type":"uint256","internalType":"uint256"}],"stateMutability":"view"},{"type":"function","name":"setNumber","inputs":[{"name":"newNumber","type":"uint256","internalType":"uint256"}],"outputs":[],"stateMutability":"nonpayable"}],"bytecode":{"object":"0x608060405234801561001057600080fd5b5061010c806100206000396000f3fe6080604052348015600f57600080fd5b506004361060465760003560e01c80633fb5c1cb14604b5780638381f58a14605d578063d09de08a146077578063f2c9ecd814607d575b600080fd5b605b60563660046098565b600055565b005b606560005481565b60405190815260200160405180910390f35b605b6084565b6000546065565b60008054908060918360b0565b9190505550565b60006020828403121560a957600080fd5b5035919050565b60006001820160cf57634e487b7160e01b600052601160045260246000fd5b506001019056fea2646970667358221220f54d842b1d4ff66906f490c570438a2fb4e45847ac0cdeaa3ed6b611efddf94564736f6c63430008180033","linkReferences":{}},"methodIdentifiers":{"getNumber()":"f2c9ecd8","increment()":"d09de08a","number()":"8381f58a","setNumber(uint256)":"3fb5c1cb"},"id":23}